:1009950043353220554152540053656E643A005236
:0409A50063763A003B
:1009060012084F7D057F011208CD7BFF7A09799584
:100916001209397D017F021208CD7BFF7A09799E83
:100926001209397D017F031208CD7BFF7A0979A46C
:030936000209397A
:030A0B000209A934
:10089300120A0B120906120800EF6016F5087D060E
:1008A3007F021208CDE5082430FF1209CEAF0812EB
:1008B30009E0E50C60E0E4F50C7D057F031208CD4B
:0A08C300E50D2430FF1209CE80CCB1
:1009BC00C2A3C2A48F80D2A57F017E0012095CC2A3
:0209CC00A52262
:1009CE00D2A3C2A48F80D2A57F017E0012095CC281
:0209DE00A52250
:1008CD008F098D0AE509B40108E50A247FFF120995
:1008DD00BCE509B40208E50A24BFFF1209BCE5090D
:1008ED00B40308E50A248FFF1209BCE509B4040816
:0908FD00E50A24CFFF1209BC2218
:100939008B098A0A890BAB09AA0AA90B12097CFF40
:1009490060101209CE7401250BF50BE4350AF50A7E
:0309590080E42215
:10084F007F381209BC7F057E0012095C7F381209C0
:10085F00BC7F057E0012095C7F381209BC7F057EC4
:10086F000012095C7F381209BC7F057E0012095CFB
:10087F007F081209BC7F011209BC7F061209BC7FD9
:04088F000C0209BC92
:1008000020B2107F0A7E001209F820B20630B2FD35
:100810007F012220B3107F0A7E001209F820B30660
:1008200030B3FD7F022220B4107F0A7E001209F847
:1008300020B40630B4FD7F032220B5107F0A7E006D
:0F0840001209F820B50630B5FD7F04227F002293
:10095C00E4FDFCC3ED9FEC9E5015E4FBFA0BBB00D1
:0F096C00010AEB647A4A70F50DBD00010C80E4BE
:01097B002259
:0A09F800EF1F70011E144E70F7226D
:1009A900759850758920758DF3758BF3D28ED2AFFA
:0309B900D2AC229B
:0C09E000C2AC8F993099FDC299D2AC22B4
:03002300020A02CC
:090A020085990D750C01C29832B2
:030000000209EC06
:0C09EC00787FE4F6D8FD75810D020893B9
:10097C00BB010689828A83E0225002E722BBFE0279
:09098C00E32289828A83E49322AC
:00000001FF
