:100DCC004C434431323836340000A8E86868E8886F
:100DDC00F81EE8686C74440000000A0606067D1FC5
:090DEC00302926266645080000A6
:100D9B007F02120B8C7BFF7A0D79D57D387F051284
:100DAB000BF8750DFF750E0D750FCC7B107D027C4E
:100DBB00007F1C7E00120C407F147E00120E4180BF
:010DCB00F730
:100E4100E4FDFCC3ED9FEC9E5015E4FBFA0BBB00E7
:0F0E5100010AEB647A4A70F50DBD00010C80E4D4
:010E6000226F
:0A0EAA00EF1F70011E144E70F722B6
:1000030000000000000000000000000000000000ED
:100013003F400000000000000000300040003000BE
:100023004000000009000BC03D000BC03D0009006B
:1000330018C024407FE0224031800000180024C013
:100043001B000D803240018003801C4027401C8030
:1000530007400040100060000000000000000000A6
:100063000000000000001F802040402000004020CE
:1000730020401F8000000000090006001F800600CA
:1000830009000000040004003F8004000400000095
:1000930000100060000000000000000004000400E5
:1000A3000400040004000000000000400000000001
:1000B30000000000002001C00600380040000000DE
:1000C3001F802040204020401F800000000010407F
:1000D3003FC000400000000018C0214022402440DF
:1000E3001840000010802040244024401B80000062
:1000F30002000D0011003FC0014000003C8024407D
:1001030024402440238000001F80244024403440A6
:10011300038000003000200027C0380020000000CA
:100123001B802440244024401B8000001C0022C06C
:10013300224022401F800000000000000840000011
:100143000000000000000000046000000000000048
:10015300000004000A00110020804040090009004B
:100163000900090009000000000040402080110040
:100173000A00040018002000234024001800000097
:100183001F802040274029401F40000000E09CF0D2
:10019300800002030000030204FC2424D8000203AD
:1001A300020201001F8020402040204030800000D8
:1001B30020403FC0204020401F80000020403FC01F
:1001C30024402E4030C0000020403FC024402E0079
:1001D300300000000F0010802040224033800200D6
:1001E30020403FC0040004003FC020402040204086
:1001F3003FC02040204000000060202020203FC05E
:100203002000200020403FC024400B0030C020408D
:1002130020403FC020400040004000C03FC03C00A1
:1002230003C03C003FC0000020403FC00C402300FF
:100233003FC020001F802040204020401F8000003E
:1002430020403FC024402400180000001F802140AC
:10025300214020E01FA0000020403FC02440260092
:1002630019C00040182424448C0003020202010038
:10027300300020403FC020403000000020003F807D
:10028300004000403F80200020003E0001C00700E6
:1002930038002000380007C03C0007C038000000C9
:1002A300204039C0060039C02040000020003840FB
:1002B30007C03840200000000C84641C04000203C3
:1002C30002020300000000007FE040204020000005
:1002D300000070000C00038000400000000040207C
:1002E30040207FE0000000000000200040002000CC
:1002F300000000000010001000100010001000109B
:100303000000000040000000000000000000028028
:100313000540054003C0004020003FC004400440A6
:1003230003800000000003800440044006400000F6
:1003330000000380044024403FC0004000000380CD
:100343000540054003400000000004401FC0244056
:1003530024402000000002E0055005500650042010
:1003630020403FC00440040003C00040000004409C
:1003730027C000400000000000100010041027E018
:100383000000000020403FC00140070004C00440BB
:10039300204020403FC000400040000007C0040050
:1003A30007C0040003C00000044007C00440040069
:1003B30003C00040000003800440044003800000A9
:1003C300041007F004500440038000000000038081
:1003D3000440045007F00010044007C0024004002A
:1003E30004000000000006400540054004C0000072
:1003F300000004001F800440004000000400078048
:100403000040044007C000400400070004C001800E
:1004130006000400060001C0070001C0060000003A
:10042300044006C0010006C0044000000410071089
:1004330004E00180060004000000044005C00640FB
:10044300044000000000000004007BE040200000A6
:10045300000000000000FFF000000000000040204A
:100463007BE004000000000040008000400020000A
:100473002000400000000000000000000000000019
:100483000000000000000000FE0C00000000101738
:100493003720000000001E0E0C1E000000000000AC
:1004A300000000000020F83C20FC200000047F0432
:1004B3007E070400000C38E0E0380C00030301035E
:1004C3007F010101106C4438E0380C0000301C0738
:1004D3001D223608000078CCC4380000001C3721E8
:1004E3003E3808000000000C060000000000000079
:1004F300000000000000E070180800000000071C66
:10050300101000000000081870E000000000101038
:100513001C070000808000F00000808000180D039D
:10052300030D1800808080F8F88080800001010F9F
:100533001F00000000000000000000000000003069
:1005430070000000008080808080808001010100B5
:100553000000000000000000000000000000003068
:100563003000000000000080E03C060000603C0713
:100573000000000000F0180C040CF800000F3820F5
:1005830020380F00000000FCF80000000000003FCE
:100593003F00000000180C0C8CC8700000003C23C6
:1005A3002130100000088C8484EC38000000000027
:1005B30020380F0000C0700C80FC0000000F0808FA
:1005C3003F08080000F80C08880808000001010132
:1005D30001311F0000C0F0D8C8840000001F302084
:1005E30020310F0000080C04048CF8000000000008
:1005F300380F00000078888484C87800001F3120F9
:1006030020311F0000F0180C040C780000030604CE
:10061300043E1F0000000080800000000000003145
:100623003100000000000080800000000000003165
:10063300710000000080C060303018000103060420
:100643000C08181040404040406060400406060615
:10065300060606020018303060C080001018080C2F
:100663000406030130FC06020604FC0000001030FF
:1006730022030000C070C83424EC18E0071C3324A4
:100683002637160100E0380C0C38E000003F020268
:1006930002003F0000FC080C84C87800003F0031D2
:1006A30021311F0000F0180C040C1800001F30202B
:1006B3002030180000FC080C0C18F000003F00303C
:1006C30020301F0000E4BC84848C0C00001F302009
:1006D3002030100000ECFC04040C0C00003F31013E
:1006E3000101000000F0180C040C1800001F302159
:1006F30031013F0000F03C000000FC00003F2101FD
:1007030001003F00000404FC1C0404000020203FFF
:1007130020202000000C0C0C7CC404080030202096
:10072300301F000000FC8CE030180C00003F230653
:100733000C18300000E07C0000000000001F302097
:100743002030100080FC30606030F860003F000013
:1007530000001F0000FCF800000CFC00003F010734
:100763001C301F0000F0180C0C18F000000F38208C
:1007730020180F0000FC0C0C040CF800003F0004D0
:100783000406030000F0180C0C18F000000F3820CA
:100793002C183F0000FC080C040CF800003F000478
:1007A300040E3B000070D88C040C080000183021A4
:1007B30021331E00000C0CFC0C0C0C000000003F4D
:1007C3000000000000F01C00001CF000000F3820A7
:1007D30020180F0000FCC00000E0FC0000011F30E7
:1007E300380F000000F80C000008F8000F3F20301D
:1007F30030203F0E000C38E0E0301C08203C0E0394
:10080300031E380000FC000000C0FC000001073C90
:100813003603000000080C8CCC6C1800001C3E232F
:10082300203010000000FC0C0C0C000000003F20E6
:100833002020000000063CE08000000000000000D3
:10084300073C700000000C0C0CFC00000000202092
:10085300203F000000080406060408000000000012
:100863000000000000000000000000008080808085
:1008730080808080000000060C0000000000000063
:10088300000000000080C02020204000001F302016
:10089300201C3F0000F878202060C000003F00309B
:1008A30020301F000080C02020206000001F302067
:1008B30020301800008060202020F800001F302026
:1008C30030003F000080E0202060C000001F323273
:1008D30022020300004040F0584848000000003F57
:1008E3002000000000C060202060E000061F30B040
:1008F30090807F0000F8F8602060C000003F000097
:1009030000381F00000008E8081000000000000F76
:100913003E00000000000808E88800000040C08096
:10092300C17F380000F81880C0602000003F070D29
:1009330018103000000000F8F80000000000003F2D
:100943003F000000E0E02060602060C00F3F000037
:1009530000003E0700E060202060C000003F200050
:1009630000381F000080E02020E08000000F3820C6
:1009730020380F0000E040202060C00000FFC0309E
:1009830020301F00008040602060E000001F302006
:100993003020FF0000E080406020200000013F2065
:1009A3000000000000C060202020600000183122F9
:1009B30022241C000020A0F83820600000001F3112
:1009C3002030100000E020000000E000001F302075
:1009D300301C3F0000E000000080E00000031F30F7
:1009E300380F000000E020000020E0000F3B20381B
:1009F30030203F0E0060C08080C0600000380C07CC
:100A0300070C380000E000000000E00000010FB810
:100A1300F01F01000060202020E0600000183C224D
:100A230021301000000000FC040400000000013F1E
:100A330060400000000000FFFF000000000000FF16
:100A4300FF00000000000404FC0000000000406000
:100A53003F01000006030102020406020000000039
:040A6300000000008F
:100DF500C2A5C2A3D2A4D2A57F017E00120EAA7FEE
:100E0500017E00120EAA8580197F017E00120EAAAE
:090E1500C2A5E519549070DE221B
:100D35008F18120DF5C2A37F017E00120EAAC2A460
:100D45007F017E00120EAAD2A57F017E00120EAA97
:100D55008518807F017E00120EAAC2A57F017E0044
:030D6500020EAAD1
:100D68008F17120DF5D2A37F017E00120EAAC2A41E
:100D78007F017E00120EAAD2A57F017E00120EAA64
:100D88008517807F017E00120EAAC2A57F017E0012
:030D9800020EAA9E
:0A0CFF00E5112516FFE5102515FD8F
:100D09008F17EDC39440400AD290C29174C02DFD53
:100D19008004C290D291ED4440FF120D357F017ECF
:0C0D290000120EAAE51744B8FF020D35B9
:0A0BF8008F088D098B0A8A0B890C07
:100C0200E4F50DE4F50EE508250DFFE509250EFDD9
:100C1200120D09AB0AAA0BA90C120E61FF120D6884
:100C22007401250CF50CE4350BF50B050EE50EC32E
:0D0C3200941040D2050DE50DC3940240C69C
:010C3F002292
:060C88008B1A8A1B891C77
:100C8E00E4F51DE4F51EAD1EAF1D120D09AB1AAA3B
:100C9E001BA91C120E61FF120D687401251CF51C98
:100CAE00E4351BF51B051EE51EC3948040D8051DBB
:070CBE00E51DC3940840CCC2
:010CC500220C
:060A67008F108D118B12AF
:100A6D0074E02512F512E513640C6003020AFEF51D
:100A7D0016E4F515E513C313FFE515C39F5068E59F
:100A8D0013B40C1EEF8516F0A47C002515FFEC3574
:100A9D00F0FE75F00CE512A42403F582E5F03400A8
:100AAD008022E513B4102FC3138516F0A47C002506
:100ABD0015FFEC35F0FE75F010E512A42477F582E4
:100ACD00E5F03404F583E5822FF582E5833EF58369
:100ADD00E493F5148005E513641822120CFFAF148E
:100AED00120D680515808D0516E516C3940240811B
:100AFD0022E4F516E513131313541FFFE516C39FD8
:100B0D00507CE4F515E513C313FFE515C39F50693C
:100B1D00E513B40C1EEF8516F0A47C002515FFEC33
:100B2D0035F0FE75F00CE512A42403F582E5F034E2
:100B3D00008022E513B4102FC3138516F0A47C009A
:100B4D002515FFEC35F0FE75F010E512A42477F5B0
:100B5D0082E5F03404F583E5822FF582E5833EF5D9
:100B6D0083E493F5148006E513B4181222120CFFDA
:0E0B7D00AF14120D680515808C0516020B01D1
:010B8B002247
:100C40008E088F098C0A8D0B8B0CAB0DAA0EA90F89
:100C5000120E61FFD3947E502EEFC394204028AF34
:100C600009AD0B120E61FB850C13120A67E50CC36C
:100C7000132509F509E43508F5087401250FF50F6A
:080C8000E4350EF50E80C322DD
:100E7A00C2A3C2A48F80D2A57F017E00120E41C2F6
:020E8A00A5229F
:100E8C00D2A3C2A48F80D2A57F017E00120E41C2D4
:020E9C00A5228D
:100CC6008F228D23E522B40108E523247FFF120E2F
:100CD6007AE522B40208E52324BFFF120E7AE52244
:100CE600B40308E523248FFF120E7AE522B4040824
:090CF600E52324CFFF120E7A223F
:100E1E008B1F8A208921AB1FAA20A921120E61FFE8
:100E2E006010120E8C74012521F521E43520F52079
:030E3E0080E4222B
:100B8C008F08E5086004640170447F38120E7A7F88
:100B9C00057E00120E417F38120E7A7F057E001200
:100BAC000E417F38120E7A7F057E00120E417F387F
:100BBC00120E7A7F057E00120E417F08120E7A7F8C
:100BCC0001120E7A7F06120E7A7F0C020E7AE5085D
:100BDC00B40218C290C2917F30120D357F0C120DE9
:0C0BEC00357F01120D357F06120D3522F9
:03000000020E9E4F
:0C0E9E00787FE4F6D8FD758125020D9BDD
:100E6100BB010689828A83E0225002E722BBFE028F
:090E7100E32289828A83E49322C2
:00000001FF
