:1008EB002D2D2D2D2D2D2D2D2D2D2D004C4344201B
:0508FB0044656D6F0073
:100844001208007D047F011208B37BFF7A0879EB5C
:100854001208707D057F021208B37BFF7A0879F7CE
:0C0864001208707F147E0012089380F7C9
:10089300E4FDFCC3ED9FEC9E5015E4FBFA0BBB009B
:0F08A300010AEB647A4A70F50DBD00010C80E488
:0108B2002223
:0A093000EF1F70011E144E70F72235
:10090000C2A3C2A48F80D2A57F017E00120893C229
:02091000A5221E
:10091200D2A3C2A48F80D2A57F017E00120893C207
:02092200A5220C
:1008B3008F088D09E508B40108E509247FFF1209B3
:0F08C30000E508B40208E50924BFFF120900226E
:100870008B088A09890AAB08AA09A90A1208D2FFBB
:1008800060101209127401250AF50AE43509F50908
:0308900080E422DF
:100800007F381209007F057E001208937F38120995
:10081000007F057E001208937F381209007F057E55
:10082000001208937F381209007F057E001208939A
:100830007F081209007F011209007F061209007F5C
:040840000C0209009D
:03000000020924CE
:0C092400787FE4F6D8FD75810A020844D3
:1008D200BB010689828A83E0225002E722BBFE0224
:0908E200E32289828A83E4932257
:00000001FF
