:10094F004769746875620063616E677A6968616E82
:10095F00002D2D2D2D2D2D2D2D2D2D2D004C4344C6
:07096F00342044656D6F00A8
:10085A001208A67D067F011208EA7BFF7A09794F02
:10086A0012099A7D057F021208EA7BFF7A097956F6
:10087A0012099A7D047F031208EA7BFF7A097960DC
:10088A0012099A7D057F041208EA7BFF7A09796CBE
:0C089A0012099A7F147E001209BD80F73D
:1009BD00E4FDFCC3ED9FEC9E5015E4FBFA0BBB0070
:0F09CD00010AEB647A4A70F50DBD00010C80E45D
:0109DC0022F8
:0A0A4100EF1F70011E144E70F72223
:100A1100C2A3C2A48F80D2A57F017E001209BDC2EC
:020A2100A5220C
:100A2300D2A3C2A48F80D2A57F017E001209BDC2CA
:020A3300A522FA
:1008EA008F0B8D0CE50BB40108E50C247FFF120A6F
:1008FA0011E50BB40208E50C24BFFF120A11E50B3F
:10090A00B40308E50C248FFF120A11E50BB404089E
:09091A00E50C24CFFF120A1122A2
:10099A008B0B8A0C890DAB0BAA0CA90D1209F8FF57
:1009AA006010120A237401250DF50DE4350CF50CBF
:0309BA0080E422B4
:1008A6007F38120A117F057E001209BD7F38120AB1
:1008B600117F057E001209BD7F38120A117F057E61
:1008C600001209BD7F38120A117F057E001209BD8C
:1008D6007F08120A117F01120A117F06120A117F80
:0408E6000C020A11E5
:10097600D2A07F017E00120A41D2A17F057E00121D
:100986000A41C2A07F057E00120A41C2A17F027EF3
:0409960000020A4110
:1009DD00C2A07F017E00120A41D2A17F057E0012C6
:0B09ED000A41D2A07F047E00020A41F4
:020800008F0E59
:10080200E4F50FAF0FE50EA807088002C333D8FC4A
:1008120030E704D2A08002C2A0D2A17F057E0012DE
:100822000A41C2A1050FE50FC3940840D67F027E9C
:1008320000120A41D2A07F027E00120A41D2A17F99
:10084200037E00120A4130A004C2008002D200C21C
:08085200A17F027E00020A41B1
:100923008F088D098B0A120976AF08120800200080
:1009330002C322AF09120800200002C322AF0A1229
:0C0943000800200002C3221209DDD322AC
:03000000020A35BC
:0C0A3500787FE4F6D8FD75812002085A95
:1009F800BB010689828A83E0225002E722BBFE02FD
:090A0800E32289828A83E493222F
:00000001FF
