:1000CC004769746875620063616E677A6968616E0E
:1000DC00002D2D2D2D2D2D2D2D2D2D2D004C434452
:0700EC00342044656D6F0034
:1000030012004F7D067F011200937BFF7A0079CCAB
:100013001200F37D057F021200937BFF7A0079D3F0
:100023001200F37D047F031200937BFF7A0079DDD6
:100033001200F37D057F041200937BFF7A0079E9B8
:0C0043001200F37F147E0012011680F7FB
:10011600E4FDFCC3ED9FEC9E5015E4FBFA0BBB001F
:0F012600010AEB647A4A70F50DBD00010C80E40C
:0101350022A7
:0A017F00EF1F70011E144E70F722EE
:10014F00C2A3C2A48F80D2A57F017E00120116C266
:02015F00A522D7
:10016100D2A3C2A48F80D2A57F017E00120116C244
:02017100A522C5
:100093008F088D09E508B40108E509247FFF1201E3
:1000A3004FE508B40208E50924BFFF12014FE50834
:1000B300B40308E509248FFF12014FE508B40408CF
:0900C300E50924CFFF12014F22D0
:1000F3008B088A09890AAB08AA09A90A120136FFE3
:1001030060101201617401250AF50AE43509F50945
:0301130080E42263
:10004F007F3812014F7F057E001201167F38120193
:10005F004F7F057E001201167F3812014F7F057EFC
:10006F00001201167F3812014F7F057E0012011614
:10007F007F0812014F7F0112014F7F0612014F7F40
:04008F000C02014F0F
:0300000002017387
:0C017300787FE4F6D8FD75810A020003D5
:10013600BB010689828A83E0225002E722BBFE02C7
:09014600E32289828A83E49322FA
:00000001FF
