:100ACA005043463835393120746573740041696E74
:030ADA00303A00AF
:100800001209227D037F011209667BFF7A0A79CAE9
:100810001209EF7D017F021209667BFF7A0A79D700
:100820001209EF7D407F90120A767F90120A348F72
:100830000BAB0B7D407F9012099FE50B75F0648434
:10084000F508E50B75F06484E5F075F00A84F509A8
:10085000E50B75F00A8485F00A7D067F02120966B1
:10086000E5082430FF120AEFE5092430FF120AEFF1
:10087000E50A2430FF120AEF7F147E00120A568028
:01088000A2D5
:100A5600E4FDFCC3ED9FEC9E5015E4FBFA0BBB00D6
:0F0A6600010AEB647A4A70F50DBD00010C80E4C3
:010A7500225E
:0A0B0D00EF1F70011E144E70F72256
:100ADD00C2A3C2A48F80D2A57F017E00120A56C286
:020AED00A52240
:100AEF00D2A3C2A48F80D2A57F017E00120A56C264
:020AFF00A5222E
:100966008F0C8D0DE50CB40108E50D247FFF120AEE
:10097600DDE50CB40208E50D24BFFF120ADDE50C27
:10098600B40308E50D248FFF120ADDE50CB4040854
:09099600E50D24CFFF120ADD2259
:1009EF008B0C8A0D890EAB0CAA0DA90E120AB1FF42
:1009FF006010120AEF7401250EF50EE4350DF50D9A
:030A0F0080E4225E
:100922007F38120ADD7F057E00120A567F38120ACE
:10093200DD7F057E00120A567F38120ADD7F057EB2
:1009420000120A567F38120ADD7F057E00120A560F
:100952007F08120ADD7F01120ADD7F06120ADD7F9F
:040962000C020ADD9C
:1009CB00D2A07F017E00120B0DD2A17F057E0012FB
:1009DB000B0DC2A07F057E00120B0DC2A17F027E04
:0409EB0000020B0DEE
:100A9600C2A07F017E00120B0DD2A17F057E00123F
:0B0AA6000B0DD2A07F047E00020B0DA0
:020881008F0FD7
:10088300E4F510AF10E50FA807088002C333D8FCC6
:1008930030E704D2A08002C2A0D2A17F057E00125D
:1008A3000B0DC2A10510E510C3940840D67F027E4C
:1008B30000120B0DD2A07F027E00120B0DD2A17F7E
:1008C300037E00120B0D30A004C2008002D200C2CE
:0808D300A17F027E00020B0D63
:10099F008F0C8D0D8B0E1209CBAF0C12088120001E
:1009AF0002C322AF0D120881200002C322AF0E1224
:0C09BF000881200002C322120A96D322F5
:100A1200200104C2A08002D2A07F037E00120B0D2F
:100A2200D2A17F057E00120B0DC2A17F027E0002C1
:020A32000B0DAA
:1008DB00E4F50ED2A0F50F7F027E00120B0DC2A124
:1008EB007F057E00120B0DD2A17F027E00120B0D35
:1008FB00E50E25E0F50E30A002050E7F027E0012FC
:10090B000B0D050FE50FC3940840CCC2A17F027EEF
:06091B0000120B0DAF0EEF
:0109210022B3
:100A76008F0C8D0D1209CBAF0C120881200002C31A
:100A860022AF0D120881200002C322120A96D32239
:020A34008F0C25
:100A36001209CBE50C04FF1208812000037F002277
:0F0A46001208DB8F0DD201120A12120A96AF0DA1
:010A5500227E
:03000000020B01EF
:0C0B0100787FE4F6D8FD75812002080022
:100AB100BB010689828A83E0225002E722BBFE0243
:090AC100E32289828A83E4932276
:00000001FF
